{
  "contractName": "SneakerFactory",
  "abi": [
    {
      "anonymous": false,
      "inputs": [
        {
          "indexed": false,
          "internalType": "uint256",
          "name": "identifier",
          "type": "uint256"
        },
        {
          "indexed": false,
          "internalType": "enum ISneakerData.ShoeType",
          "name": "shoeType",
          "type": "uint8"
        },
        {
          "indexed": false,
          "internalType": "enum ISneakerData.Rarity",
          "name": "rarity",
          "type": "uint8"
        }
      ],
      "name": "NewSneaker",
      "type": "event"
    },
    {
      "anonymous": false,
      "inputs": [
        {
          "indexed": true,
          "internalType": "address",
          "name": "previousOwner",
          "type": "address"
        },
        {
          "indexed": true,
          "internalType": "address",
          "name": "newOwner",
          "type": "address"
        }
      ],
      "name": "OwnershipTransferred",
      "type": "event"
    },
    {
      "inputs": [],
      "name": "owner",
      "outputs": [
        {
          "internalType": "address",
          "name": "",
          "type": "address"
        }
      ],
      "stateMutability": "view",
      "type": "function"
    },
    {
      "inputs": [],
      "name": "renounceOwnership",
      "outputs": [],
      "stateMutability": "nonpayable",
      "type": "function"
    },
    {
      "inputs": [
        {
          "internalType": "uint256",
          "name": "",
          "type": "uint256"
        }
      ],
      "name": "sneakerToOwner",
      "outputs": [
        {
          "internalType": "address",
          "name": "",
          "type": "address"
        }
      ],
      "stateMutability": "view",
      "type": "function"
    },
    {
      "inputs": [
        {
          "internalType": "uint256",
          "name": "",
          "type": "uint256"
        }
      ],
      "name": "sneakers",
      "outputs": [
        {
          "internalType": "uint256",
          "name": "identifier",
          "type": "uint256"
        },
        {
          "internalType": "enum ISneakerData.ShoeType",
          "name": "shoeType",
          "type": "uint8"
        },
        {
          "internalType": "enum ISneakerData.Rarity",
          "name": "rarity",
          "type": "uint8"
        },
        {
          "internalType": "uint8",
          "name": "level",
          "type": "uint8"
        },
        {
          "internalType": "uint8",
          "name": "durability",
          "type": "uint8"
        },
        {
          "internalType": "bool",
          "name": "putOn",
          "type": "bool"
        },
        {
          "internalType": "uint32",
          "name": "baseEfficiency",
          "type": "uint32"
        },
        {
          "internalType": "uint32",
          "name": "baseLuck",
          "type": "uint32"
        },
        {
          "internalType": "uint32",
          "name": "baseComfort",
          "type": "uint32"
        },
        {
          "internalType": "uint32",
          "name": "baseResiliense",
          "type": "uint32"
        },
        {
          "internalType": "uint32",
          "name": "pointNum",
          "type": "uint32"
        }
      ],
      "stateMutability": "view",
      "type": "function"
    },
    {
      "inputs": [
        {
          "internalType": "address",
          "name": "newOwner",
          "type": "address"
        }
      ],
      "name": "transferOwnership",
      "outputs": [],
      "stateMutability": "nonpayable",
      "type": "function"
    },
    {
      "inputs": [
        {
          "internalType": "string",
          "name": "_name",
          "type": "string"
        },
        {
          "internalType": "enum ISneakerData.ShoeType",
          "name": "_shoeType",
          "type": "uint8"
        },
        {
          "internalType": "enum ISneakerData.Rarity",
          "name": "_rarity",
          "type": "uint8"
        }
      ],
      "name": "createSneaker",
      "outputs": [],
      "stateMutability": "payable",
      "type": "function"
    }
  ],
  "bytecode": "0x608060405234801561001057600080fd5b5061002d61002261003260201b60201c565b61003a60201b60201c565b6100fe565b600033905090565b60008060009054906101000a900473ffffffffffffffffffffffffffffffffffffffff169050816000806101000a81548173ffffffffffffffffffffffffffffffffffffffff021916908373ffffffffffffffffffffffffffffffffffffffff1602179055508173ffffffffffffffffffffffffffffffffffffffff168173ffffffffffffffffffffffffffffffffffffffff167f8be0079c531659141344cd1fd0a4f28419497f9722a3daafe3b4186f6b6457e060405160405180910390a35050565b6112e38061010d6000396000f3fe6080604052600436106100555760003560e01c80636ad354821461005a578063715018a6146100975780638da5cb5b146100ae578063bd2e065c146100d9578063e2037bc814610120578063f2fde38b1461013c575b600080fd5b34801561006657600080fd5b50610081600480360381019061007c9190610b1e565b610165565b60405161008e9190610b8c565b60405180910390f35b3480156100a357600080fd5b506100ac610198565b005b3480156100ba57600080fd5b506100c3610220565b6040516100d09190610b8c565b60405180910390f35b3480156100e557600080fd5b5061010060048036038101906100fb9190610b1e565b610249565b6040516101179b9a99989796959493929190610ccb565b60405180910390f35b61013a60048036038101906101359190610f06565b610344565b005b34801561014857600080fd5b50610163600480360381019061015e9190610fa1565b6103de565b005b60026020528060005260406000206000915054906101000a900473ffffffffffffffffffffffffffffffffffffffff1681565b6101a06104d5565b73ffffffffffffffffffffffffffffffffffffffff166101be610220565b73ffffffffffffffffffffffffffffffffffffffff1614610214576040517f08c379a000000000000000000000000000000000000000000000000000000000815260040161020b9061102b565b60405180910390fd5b61021e60006104dd565b565b60008060009054906101000a900473ffffffffffffffffffffffffffffffffffffffff16905090565b6001818154811061025957600080fd5b90600052602060002090600202016000915090508060000154908060010160009054906101000a900460ff16908060010160019054906101000a900460ff16908060010160029054906101000a900460ff16908060010160039054906101000a900460ff16908060010160049054906101000a900460ff16908060010160059054906101000a900463ffffffff16908060010160099054906101000a900463ffffffff169080600101600d9054906101000a900463ffffffff16908060010160119054906101000a900463ffffffff16908060010160159054906101000a900463ffffffff1690508b565b61034c6104d5565b73ffffffffffffffffffffffffffffffffffffffff1661036a610220565b73ffffffffffffffffffffffffffffffffffffffff16146103c0576040517f08c379a00000000000000000000000000000000000000000000000000000000081526004016103b79061102b565b60405180910390fd5b60006103cb846105a1565b90506103d88184846105eb565b50505050565b6103e66104d5565b73ffffffffffffffffffffffffffffffffffffffff16610404610220565b73ffffffffffffffffffffffffffffffffffffffff161461045a576040517f08c379a00000000000000000000000000000000000000000000000000000000081526004016104519061102b565b60405180910390fd5b600073ffffffffffffffffffffffffffffffffffffffff168173ffffffffffffffffffffffffffffffffffffffff16036104c9576040517f08c379a00000000000000000000000000000000000000000000000000000000081526004016104c0906110bd565b60405180910390fd5b6104d2816104dd565b50565b600033905090565b60008060009054906101000a900473ffffffffffffffffffffffffffffffffffffffff169050816000806101000a81548173ffffffffffffffffffffffffffffffffffffffff021916908373ffffffffffffffffffffffffffffffffffffffff1602179055508173ffffffffffffffffffffffffffffffffffffffff168173ffffffffffffffffffffffffffffffffffffffff167f8be0079c531659141344cd1fd0a4f28419497f9722a3daafe3b4186f6b6457e060405160405180910390a35050565b600080826040516020016105b59190611154565b6040516020818303038152906040528051906020012060001c9050662386f26fc10000816105e391906111a5565b915050919050565b600060405180610160016040528085815260200184600381111561061257610611610bb6565b5b815260200183600381111561062a57610629610bb6565b5b8152602001600060ff168152602001606460ff1681526020016001151581526020016106568685610900565b63ffffffff16815260200161066b8685610900565b63ffffffff1681526020016106808685610900565b63ffffffff1681526020016106958685610900565b63ffffffff168152602001600063ffffffff16815250905060018190806001815401808255809150506001900390600052602060002090600202016000909190919091506000820151816000015560208201518160010160006101000a81548160ff0219169083600381111561070e5761070d610bb6565b5b021790555060408201518160010160016101000a81548160ff0219169083600381111561073e5761073d610bb6565b5b021790555060608201518160010160026101000a81548160ff021916908360ff16021790555060808201518160010160036101000a81548160ff021916908360ff16021790555060a08201518160010160046101000a81548160ff02191690831515021790555060c08201518160010160056101000a81548163ffffffff021916908363ffffffff16021790555060e08201518160010160096101000a81548163ffffffff021916908363ffffffff16021790555061010082015181600101600d6101000a81548163ffffffff021916908363ffffffff1602179055506101208201518160010160116101000a81548163ffffffff021916908363ffffffff1602179055506101408201518160010160156101000a81548163ffffffff021916908363ffffffff1602179055505050336002600086815260200190815260200160002060006101000a81548173ffffffffffffffffffffffffffffffffffffffff021916908373ffffffffffffffffffffffffffffffffffffffff1602179055507f6a8c59da79afe08e9e21105b96ace9e15b03412ae0b524de35e6aaf93985f3a48484846040516108f2939291906111d6565b60405180910390a150505050565b6000816000600381111561091757610916610bb6565b5b81600381111561092a57610929610bb6565b5b1015801561095c575080600381111561094657610945610bb6565b5b60038081111561095957610958610bb6565b5b10155b61096557600080fd5b600084604051602001610978919061120d565b6040516020818303038152906040528051906020012060001c9050600060038111156109a7576109a6610bb6565b5b8460038111156109ba576109b9610bb6565b5b036109e0576001600a826109ce91906111a5565b6109d89190611257565b925050610acd565b600060038111156109f4576109f3610bb6565b5b846003811115610a0757610a06610bb6565b5b03610a2d576008601282610a1b91906111a5565b610a259190611257565b925050610acd565b60006003811115610a4157610a40610bb6565b5b846003811115610a5457610a53610bb6565b5b03610a7a57600f602382610a6891906111a5565b610a729190611257565b925050610acd565b60006003811115610a8e57610a8d610bb6565b5b846003811115610aa157610aa0610bb6565b5b03610ac757603f601c82610ab591906111a5565b610abf9190611257565b925050610acd565b60009250505b5092915050565b6000604051905090565b600080fd5b600080fd5b6000819050919050565b610afb81610ae8565b8114610b0657600080fd5b50565b600081359050610b1881610af2565b92915050565b600060208284031215610b3457610b33610ade565b5b6000610b4284828501610b09565b91505092915050565b600073ffffffffffffffffffffffffffffffffffffffff82169050919050565b6000610b7682610b4b565b9050919050565b610b8681610b6b565b82525050565b6000602082019050610ba16000830184610b7d565b92915050565b610bb081610ae8565b82525050565b7f4e487b7100000000000000000000000000000000000000000000000000000000600052602160045260246000fd5b60048110610bf657610bf5610bb6565b5b50565b6000819050610c0782610be5565b919050565b6000610c1782610bf9565b9050919050565b610c2781610c0c565b82525050565b60048110610c3e57610c3d610bb6565b5b50565b6000819050610c4f82610c2d565b919050565b6000610c5f82610c41565b9050919050565b610c6f81610c54565b82525050565b600060ff82169050919050565b610c8b81610c75565b82525050565b60008115159050919050565b610ca681610c91565b82525050565b600063ffffffff82169050919050565b610cc581610cac565b82525050565b600061016082019050610ce1600083018e610ba7565b610cee602083018d610c1e565b610cfb604083018c610c66565b610d08606083018b610c82565b610d15608083018a610c82565b610d2260a0830189610c9d565b610d2f60c0830188610cbc565b610d3c60e0830187610cbc565b610d4a610100830186610cbc565b610d58610120830185610cbc565b610d66610140830184610cbc565b9c9b505050505050505050505050565b600080fd5b600080fd5b6000601f19601f8301169050919050565b7f4e487b7100000000000000000000000000000000000000000000000000000000600052604160045260246000fd5b610dc982610d80565b810181811067ffffffffffffffff82111715610de857610de7610d91565b5b80604052505050565b6000610dfb610ad4565b9050610e078282610dc0565b919050565b600067ffffffffffffffff821115610e2757610e26610d91565b5b610e3082610d80565b9050602081019050919050565b82818337600083830152505050565b6000610e5f610e5a84610e0c565b610df1565b905082815260208101848484011115610e7b57610e7a610d7b565b5b610e86848285610e3d565b509392505050565b600082601f830112610ea357610ea2610d76565b5b8135610eb3848260208601610e4c565b91505092915050565b60048110610ec957600080fd5b50565b600081359050610edb81610ebc565b92915050565b60048110610eee57600080fd5b50565b600081359050610f0081610ee1565b92915050565b600080600060608486031215610f1f57610f1e610ade565b5b600084013567ffffffffffffffff811115610f3d57610f3c610ae3565b5b610f4986828701610e8e565b9350506020610f5a86828701610ecc565b9250506040610f6b86828701610ef1565b9150509250925092565b610f7e81610b6b565b8114610f8957600080fd5b50565b600081359050610f9b81610f75565b92915050565b600060208284031215610fb757610fb6610ade565b5b6000610fc584828501610f8c565b91505092915050565b600082825260208201905092915050565b7f4f776e61626c653a2063616c6c6572206973206e6f7420746865206f776e6572600082015250565b6000611015602083610fce565b915061102082610fdf565b602082019050919050565b6000602082019050818103600083015261104481611008565b9050919050565b7f4f776e61626c653a206e6577206f776e657220697320746865207a65726f206160008201527f6464726573730000000000000000000000000000000000000000000000000000602082015250565b60006110a7602683610fce565b91506110b28261104b565b604082019050919050565b600060208201905081810360008301526110d68161109a565b9050919050565b600081519050919050565b60005b838110156111065780820151818401526020810190506110eb565b83811115611115576000848401525b50505050565b6000611126826110dd565b6111308185610fce565b93506111408185602086016110e8565b61114981610d80565b840191505092915050565b6000602082019050818103600083015261116e818461111b565b905092915050565b7f4e487b7100000000000000000000000000000000000000000000000000000000600052601260045260246000fd5b60006111b082610ae8565b91506111bb83610ae8565b9250826111cb576111ca611176565b5b828206905092915050565b60006060820190506111eb6000830186610ba7565b6111f86020830185610c1e565b6112056040830184610c66565b949350505050565b60006020820190506112226000830184610ba7565b92915050565b7f4e487b7100000000000000000000000000000000000000000000000000000000600052601160045260246000fd5b600061126282610ae8565b915061126d83610ae8565b9250827fffffffffffffffffffffffffffffffffffffffffffffffffffffffffffffffff038211156112a2576112a1611228565b5b82820190509291505056fea26469706673582212202c6fa6bd21eff906e35370ea59ea61aa94d62854903f33197e6b0200db1844f864736f6c634300080e0033",
  "immutableReferences": {},
  "source": "// SPDX-License-Identifier: UNLICENSED\npragma solidity ^0.8.14;\n\nimport \"@openzeppelin/contracts/access/Ownable.sol\";\nimport { ISneakerData } from \"./interface/ISneakerData.sol\";\n\ncontract SneakerFactory is Ownable {\n\n  event NewSneaker(uint identifier, ISneakerData.ShoeType shoeType, ISneakerData.Rarity rarity);\n\n  modifier validateRarity(ISneakerData.Rarity _rarity) {\n    require(uint(_rarity) >= uint(ISneakerData.Rarity.COMMON) && uint(ISneakerData.Rarity.EPIC) >= uint(_rarity));\n    _;\n  }\n\n  ISneakerData.Sneaker[] public sneakers;\n\n  mapping (uint => address) public sneakerToOwner;\n\n  function _createSneaker(\n    uint _identifier,\n    ISneakerData.ShoeType _shoeType,\n    ISneakerData.Rarity _rarity\n  )\n    private\n  {\n    ISneakerData.Sneaker memory _newSneaker = ISneakerData.Sneaker(\n      _identifier,\n      _shoeType,\n      _rarity,\n      0,\n      100,\n      true,\n      _generateStatusBasedOnRarity(_identifier, _rarity),\n      _generateStatusBasedOnRarity(_identifier, _rarity),\n      _generateStatusBasedOnRarity(_identifier, _rarity),\n      _generateStatusBasedOnRarity(_identifier, _rarity),\n      0\n    );\n    sneakers.push(_newSneaker);\n    sneakerToOwner[_identifier] = msg.sender;\n    emit NewSneaker(_identifier, _shoeType, _rarity);\n  }\n\n  function _generateIdentifier(string memory _str)\n    private\n    pure\n    returns (uint)\n  {\n    uint rand = uint(keccak256(abi.encode(_str)));\n    return rand % (10 ** 16);\n  }\n\n  function _generateStatusBasedOnRarity(\n    uint _identifier,\n    ISneakerData.Rarity _rarity\n  )\n    private\n    pure\n    validateRarity(_rarity)\n    returns (uint32)\n  {\n    uint random = uint(keccak256(abi.encode(_identifier)));\n    if (_rarity == ISneakerData.Rarity.COMMON) {\n      return uint32(random % 10 + 1);\n    } else if (_rarity == ISneakerData.Rarity.COMMON) {\n      return uint32(random % 18 + 8);\n    } else if (_rarity == ISneakerData.Rarity.COMMON) {\n      return uint32(random % 35 + 15);\n    } else if (_rarity == ISneakerData.Rarity.COMMON) {\n      return uint32(random % 28 + 63);\n    }\n    return uint32(0);\n  }\n\n  function createSneaker(\n    string memory _name,\n    ISneakerData.ShoeType _shoeType,\n    ISneakerData.Rarity _rarity\n  )\n    public\n    payable\n    onlyOwner\n  {\n    uint identifier = _generateIdentifier(_name);\n    _createSneaker(identifier, _shoeType, _rarity);\n  }\n}",
  "sourcePath": "/Users/takaishouhei/Desktop/stepn_dummy_contract/contracts/SneakerFactory.sol",
  "compiler": {
    "name": "solc",
    "version": "0.8.14+commit.80d49f37.Emscripten.clang"
  },
  "schemaVersion": "3.4.7",
  "updatedAt": "2022-06-11T17:16:52.491Z",
  "devdoc": {
    "kind": "dev",
    "methods": {
      "owner()": {
        "details": "Returns the address of the current owner."
      },
      "renounceOwnership()": {
        "details": "Leaves the contract without owner. It will not be possible to call `onlyOwner` functions anymore. Can only be called by the current owner. NOTE: Renouncing ownership will leave the contract without an owner, thereby removing any functionality that is only available to the owner."
      },
      "transferOwnership(address)": {
        "details": "Transfers ownership of the contract to a new account (`newOwner`). Can only be called by the current owner."
      }
    },
    "version": 1
  },
  "userdoc": {
    "kind": "user",
    "methods": {},
    "version": 1
  }
}