{
  "contractName": "SneakerFactory",
  "abi": [
    {
      "anonymous": false,
      "inputs": [
        {
          "indexed": true,
          "internalType": "address",
          "name": "owner",
          "type": "address"
        },
        {
          "indexed": true,
          "internalType": "address",
          "name": "approved",
          "type": "address"
        },
        {
          "indexed": true,
          "internalType": "uint256",
          "name": "tokenId",
          "type": "uint256"
        }
      ],
      "name": "Approval",
      "type": "event"
    },
    {
      "anonymous": false,
      "inputs": [
        {
          "indexed": true,
          "internalType": "address",
          "name": "owner",
          "type": "address"
        },
        {
          "indexed": true,
          "internalType": "address",
          "name": "operator",
          "type": "address"
        },
        {
          "indexed": false,
          "internalType": "bool",
          "name": "approved",
          "type": "bool"
        }
      ],
      "name": "ApprovalForAll",
      "type": "event"
    },
    {
      "anonymous": false,
      "inputs": [
        {
          "indexed": false,
          "internalType": "uint256",
          "name": "tokenId",
          "type": "uint256"
        },
        {
          "indexed": false,
          "internalType": "enum ISneakerData.ShoeType",
          "name": "shoeType",
          "type": "uint8"
        },
        {
          "indexed": false,
          "internalType": "enum ISneakerData.Rarity",
          "name": "rarity",
          "type": "uint8"
        }
      ],
      "name": "NewSneaker",
      "type": "event"
    },
    {
      "anonymous": false,
      "inputs": [
        {
          "indexed": true,
          "internalType": "address",
          "name": "previousOwner",
          "type": "address"
        },
        {
          "indexed": true,
          "internalType": "address",
          "name": "newOwner",
          "type": "address"
        }
      ],
      "name": "OwnershipTransferred",
      "type": "event"
    },
    {
      "anonymous": false,
      "inputs": [
        {
          "indexed": true,
          "internalType": "address",
          "name": "from",
          "type": "address"
        },
        {
          "indexed": true,
          "internalType": "address",
          "name": "to",
          "type": "address"
        },
        {
          "indexed": true,
          "internalType": "uint256",
          "name": "tokenId",
          "type": "uint256"
        }
      ],
      "name": "Transfer",
      "type": "event"
    },
    {
      "inputs": [
        {
          "internalType": "address",
          "name": "to",
          "type": "address"
        },
        {
          "internalType": "uint256",
          "name": "tokenId",
          "type": "uint256"
        }
      ],
      "name": "approve",
      "outputs": [],
      "stateMutability": "nonpayable",
      "type": "function"
    },
    {
      "inputs": [
        {
          "internalType": "address",
          "name": "owner",
          "type": "address"
        }
      ],
      "name": "balanceOf",
      "outputs": [
        {
          "internalType": "uint256",
          "name": "",
          "type": "uint256"
        }
      ],
      "stateMutability": "view",
      "type": "function",
      "constant": true
    },
    {
      "inputs": [
        {
          "internalType": "uint256",
          "name": "tokenId",
          "type": "uint256"
        }
      ],
      "name": "getApproved",
      "outputs": [
        {
          "internalType": "address",
          "name": "",
          "type": "address"
        }
      ],
      "stateMutability": "view",
      "type": "function",
      "constant": true
    },
    {
      "inputs": [
        {
          "internalType": "address",
          "name": "owner",
          "type": "address"
        },
        {
          "internalType": "address",
          "name": "operator",
          "type": "address"
        }
      ],
      "name": "isApprovedForAll",
      "outputs": [
        {
          "internalType": "bool",
          "name": "",
          "type": "bool"
        }
      ],
      "stateMutability": "view",
      "type": "function",
      "constant": true
    },
    {
      "inputs": [],
      "name": "name",
      "outputs": [
        {
          "internalType": "string",
          "name": "",
          "type": "string"
        }
      ],
      "stateMutability": "view",
      "type": "function",
      "constant": true
    },
    {
      "inputs": [],
      "name": "owner",
      "outputs": [
        {
          "internalType": "address",
          "name": "",
          "type": "address"
        }
      ],
      "stateMutability": "view",
      "type": "function",
      "constant": true
    },
    {
      "inputs": [
        {
          "internalType": "uint256",
          "name": "tokenId",
          "type": "uint256"
        }
      ],
      "name": "ownerOf",
      "outputs": [
        {
          "internalType": "address",
          "name": "",
          "type": "address"
        }
      ],
      "stateMutability": "view",
      "type": "function",
      "constant": true
    },
    {
      "inputs": [],
      "name": "renounceOwnership",
      "outputs": [],
      "stateMutability": "nonpayable",
      "type": "function"
    },
    {
      "inputs": [
        {
          "internalType": "address",
          "name": "from",
          "type": "address"
        },
        {
          "internalType": "address",
          "name": "to",
          "type": "address"
        },
        {
          "internalType": "uint256",
          "name": "tokenId",
          "type": "uint256"
        }
      ],
      "name": "safeTransferFrom",
      "outputs": [],
      "stateMutability": "nonpayable",
      "type": "function"
    },
    {
      "inputs": [
        {
          "internalType": "address",
          "name": "from",
          "type": "address"
        },
        {
          "internalType": "address",
          "name": "to",
          "type": "address"
        },
        {
          "internalType": "uint256",
          "name": "tokenId",
          "type": "uint256"
        },
        {
          "internalType": "bytes",
          "name": "_data",
          "type": "bytes"
        }
      ],
      "name": "safeTransferFrom",
      "outputs": [],
      "stateMutability": "nonpayable",
      "type": "function"
    },
    {
      "inputs": [
        {
          "internalType": "address",
          "name": "operator",
          "type": "address"
        },
        {
          "internalType": "bool",
          "name": "approved",
          "type": "bool"
        }
      ],
      "name": "setApprovalForAll",
      "outputs": [],
      "stateMutability": "nonpayable",
      "type": "function"
    },
    {
      "inputs": [
        {
          "internalType": "uint256",
          "name": "",
          "type": "uint256"
        }
      ],
      "name": "sneakerToOwner",
      "outputs": [
        {
          "internalType": "address",
          "name": "",
          "type": "address"
        }
      ],
      "stateMutability": "view",
      "type": "function",
      "constant": true
    },
    {
      "inputs": [
        {
          "internalType": "bytes4",
          "name": "interfaceId",
          "type": "bytes4"
        }
      ],
      "name": "supportsInterface",
      "outputs": [
        {
          "internalType": "bool",
          "name": "",
          "type": "bool"
        }
      ],
      "stateMutability": "view",
      "type": "function",
      "constant": true
    },
    {
      "inputs": [],
      "name": "symbol",
      "outputs": [
        {
          "internalType": "string",
          "name": "",
          "type": "string"
        }
      ],
      "stateMutability": "view",
      "type": "function",
      "constant": true
    },
    {
      "inputs": [
        {
          "internalType": "uint256",
          "name": "tokenId",
          "type": "uint256"
        }
      ],
      "name": "tokenURI",
      "outputs": [
        {
          "internalType": "string",
          "name": "",
          "type": "string"
        }
      ],
      "stateMutability": "view",
      "type": "function",
      "constant": true
    },
    {
      "inputs": [
        {
          "internalType": "address",
          "name": "from",
          "type": "address"
        },
        {
          "internalType": "address",
          "name": "to",
          "type": "address"
        },
        {
          "internalType": "uint256",
          "name": "tokenId",
          "type": "uint256"
        }
      ],
      "name": "transferFrom",
      "outputs": [],
      "stateMutability": "nonpayable",
      "type": "function"
    },
    {
      "inputs": [
        {
          "internalType": "address",
          "name": "newOwner",
          "type": "address"
        }
      ],
      "name": "transferOwnership",
      "outputs": [],
      "stateMutability": "nonpayable",
      "type": "function"
    },
    {
      "inputs": [
        {
          "internalType": "enum ISneakerData.ShoeType",
          "name": "_shoeType",
          "type": "uint8"
        },
        {
          "internalType": "enum ISneakerData.Rarity",
          "name": "_rarity",
          "type": "uint8"
        }
      ],
      "name": "createSneaker",
      "outputs": [],
      "stateMutability": "payable",
      "type": "function",
      "payable": true
    },
    {
      "inputs": [],
      "name": "getSneakers",
      "outputs": [
        {
          "components": [
            {
              "internalType": "uint256",
              "name": "tokenId",
              "type": "uint256"
            },
            {
              "internalType": "enum ISneakerData.ShoeType",
              "name": "shoeType",
              "type": "uint8"
            },
            {
              "internalType": "enum ISneakerData.Rarity",
              "name": "rarity",
              "type": "uint8"
            },
            {
              "internalType": "uint8",
              "name": "level",
              "type": "uint8"
            },
            {
              "internalType": "uint8",
              "name": "durability",
              "type": "uint8"
            },
            {
              "internalType": "uint8",
              "name": "mintCount",
              "type": "uint8"
            },
            {
              "internalType": "bool",
              "name": "putOn",
              "type": "bool"
            },
            {
              "internalType": "uint32",
              "name": "baseEfficiency",
              "type": "uint32"
            },
            {
              "internalType": "uint32",
              "name": "baseLuck",
              "type": "uint32"
            },
            {
              "internalType": "uint32",
              "name": "baseComfort",
              "type": "uint32"
            },
            {
              "internalType": "uint32",
              "name": "baseResiliense",
              "type": "uint32"
            },
            {
              "internalType": "uint32",
              "name": "efficiency",
              "type": "uint32"
            },
            {
              "internalType": "uint32",
              "name": "luck",
              "type": "uint32"
            },
            {
              "internalType": "uint32",
              "name": "comfort",
              "type": "uint32"
            },
            {
              "internalType": "uint32",
              "name": "resiliense",
              "type": "uint32"
            },
            {
              "internalType": "uint32",
              "name": "pointNum",
              "type": "uint32"
            },
            {
              "internalType": "bool",
              "name": "minted",
              "type": "bool"
            },
            {
              "internalType": "uint256",
              "name": "mintedFromTokenId1",
              "type": "uint256"
            },
            {
              "internalType": "uint256",
              "name": "mintedFromTokenId2",
              "type": "uint256"
            }
          ],
          "internalType": "struct ISneakerData.Sneaker[]",
          "name": "",
          "type": "tuple[]"
        }
      ],
      "stateMutability": "view",
      "type": "function",
      "constant": true
    },
    {
      "inputs": [
        {
          "internalType": "address",
          "name": "_owner",
          "type": "address"
        }
      ],
      "name": "getOwnerToSneakers",
      "outputs": [
        {
          "components": [
            {
              "internalType": "uint256",
              "name": "tokenId",
              "type": "uint256"
            },
            {
              "internalType": "enum ISneakerData.ShoeType",
              "name": "shoeType",
              "type": "uint8"
            },
            {
              "internalType": "enum ISneakerData.Rarity",
              "name": "rarity",
              "type": "uint8"
            },
            {
              "internalType": "uint8",
              "name": "level",
              "type": "uint8"
            },
            {
              "internalType": "uint8",
              "name": "durability",
              "type": "uint8"
            },
            {
              "internalType": "uint8",
              "name": "mintCount",
              "type": "uint8"
            },
            {
              "internalType": "bool",
              "name": "putOn",
              "type": "bool"
            },
            {
              "internalType": "uint32",
              "name": "baseEfficiency",
              "type": "uint32"
            },
            {
              "internalType": "uint32",
              "name": "baseLuck",
              "type": "uint32"
            },
            {
              "internalType": "uint32",
              "name": "baseComfort",
              "type": "uint32"
            },
            {
              "internalType": "uint32",
              "name": "baseResiliense",
              "type": "uint32"
            },
            {
              "internalType": "uint32",
              "name": "efficiency",
              "type": "uint32"
            },
            {
              "internalType": "uint32",
              "name": "luck",
              "type": "uint32"
            },
            {
              "internalType": "uint32",
              "name": "comfort",
              "type": "uint32"
            },
            {
              "internalType": "uint32",
              "name": "resiliense",
              "type": "uint32"
            },
            {
              "internalType": "uint32",
              "name": "pointNum",
              "type": "uint32"
            },
            {
              "internalType": "bool",
              "name": "minted",
              "type": "bool"
            },
            {
              "internalType": "uint256",
              "name": "mintedFromTokenId1",
              "type": "uint256"
            },
            {
              "internalType": "uint256",
              "name": "mintedFromTokenId2",
              "type": "uint256"
            }
          ],
          "internalType": "struct ISneakerData.Sneaker[]",
          "name": "",
          "type": "tuple[]"
        }
      ],
      "stateMutability": "view",
      "type": "function",
      "constant": true
    }
  ],
  "bytecode": "0x608060405260006007553480156200001657600080fd5b506040518060400160405280601381526020017f537465706e2064756d6d7520736e65616b6572000000000000000000000000008152506040518060400160405280600381526020017f534453000000000000000000000000000000000000000000000000000000000081525081600090805190602001906200009b929190620001ab565b508060019080519060200190620000b4929190620001ab565b505050620000d7620000cb620000dd60201b60201c565b620000e560201b60201c565b620002bf565b600033905090565b6000600660009054906101000a900473ffffffffffffffffffffffffffffffffffffffff16905081600660006101000a81548173ffffffffffffffffffffffffffffffffffffffff021916908373ffffffffffffffffffffffffffffffffffffffff1602179055508173ffffffffffffffffffffffffffffffffffffffff168173ffffffffffffffffffffffffffffffffffffffff167f8be0079c531659141344cd1fd0a4f28419497f9722a3daafe3b4186f6b6457e060405160405180910390a35050565b828054620001b9906200028a565b90600052602060002090601f016020900481019282620001dd576000855562000229565b82601f10620001f857805160ff191683800117855562000229565b8280016001018555821562000229579182015b82811115620002285782518255916020019190600101906200020b565b5b5090506200023891906200023c565b5090565b5b80821115620002575760008160009055506001016200023d565b5090565b7f4e487b7100000000000000000000000000000000000000000000000000000000600052602260045260246000fd5b60006002820490506001821680620002a357607f821691505b602082108103620002b957620002b86200025b565b5b50919050565b613fab80620002cf6000396000f3fe60806040526004361061011f5760003560e01c80638da5cb5b116100a0578063b88d4fde11610064578063b88d4fde146103d8578063c020304114610401578063c87b56dd1461043e578063e985e9c51461047b578063f2fde38b146104b85761011f565b80638da5cb5b146103125780638fa6782a1461033d57806395d89b41146103685780639f8a704b14610393578063a22cb465146103af5761011f565b806342842e0e116100e757806342842e0e1461021b5780636352211e146102445780636ad354821461028157806370a08231146102be578063715018a6146102fb5761011f565b806301ffc9a71461012457806306fdde0314610161578063081812fc1461018c578063095ea7b3146101c957806323b872dd146101f2575b600080fd5b34801561013057600080fd5b5061014b600480360381019061014691906129de565b6104e1565b6040516101589190612a26565b60405180910390f35b34801561016d57600080fd5b506101766105c3565b6040516101839190612ada565b60405180910390f35b34801561019857600080fd5b506101b360048036038101906101ae9190612b32565b610655565b6040516101c09190612ba0565b60405180910390f35b3480156101d557600080fd5b506101f060048036038101906101eb9190612be7565b6106da565b005b3480156101fe57600080fd5b5061021960048036038101906102149190612c27565b6107f1565b005b34801561022757600080fd5b50610242600480360381019061023d9190612c27565b610851565b005b34801561025057600080fd5b5061026b60048036038101906102669190612b32565b610871565b6040516102789190612ba0565b60405180910390f35b34801561028d57600080fd5b506102a860048036038101906102a39190612b32565b610922565b6040516102b59190612ba0565b60405180910390f35b3480156102ca57600080fd5b506102e560048036038101906102e09190612c7a565b610955565b6040516102f29190612cb6565b60405180910390f35b34801561030757600080fd5b50610310610a0c565b005b34801561031e57600080fd5b50610327610a94565b6040516103349190612ba0565b60405180910390f35b34801561034957600080fd5b50610352610abe565b60405161035f9190613022565b60405180910390f35b34801561037457600080fd5b5061037d610e11565b60405161038a9190612ada565b60405180910390f35b6103ad60048036038101906103a8919061308e565b610ea3565b005b3480156103bb57600080fd5b506103d660048036038101906103d191906130fa565b610ff5565b005b3480156103e457600080fd5b506103ff60048036038101906103fa919061326f565b61100b565b005b34801561040d57600080fd5b5061042860048036038101906104239190612c7a565b61106d565b6040516104359190613022565b60405180910390f35b34801561044a57600080fd5b5061046560048036038101906104609190612b32565b611383565b6040516104729190612ada565b60405180910390f35b34801561048757600080fd5b506104a2600480360381019061049d91906132f2565b61142a565b6040516104af9190612a26565b60405180910390f35b3480156104c457600080fd5b506104df60048036038101906104da9190612c7a565b6114be565b005b60007f80ac58cd000000000000000000000000000000000000000000000000000000007bffffffffffffffffffffffffffffffffffffffffffffffffffffffff1916827bffffffffffffffffffffffffffffffffffffffffffffffffffffffff191614806105ac57507f5b5e139f000000000000000000000000000000000000000000000000000000007bffffffffffffffffffffffffffffffffffffffffffffffffffffffff1916827bffffffffffffffffffffffffffffffffffffffffffffffffffffffff1916145b806105bc57506105bb826115b5565b5b9050919050565b6060600080546105d290613361565b80601f01602080910402602001604051908101604052809291908181526020018280546105fe90613361565b801561064b5780601f106106205761010080835404028352916020019161064b565b820191906000526020600020905b81548152906001019060200180831161062e57829003601f168201915b5050505050905090565b60006106608261161f565b61069f576040517f08c379a000000000000000000000000000000000000000000000000000000000815260040161069690613404565b60405180910390fd5b6004600083815260200190815260200160002060009054906101000a900473ffffffffffffffffffffffffffffffffffffffff169050919050565b60006106e582610871565b90508073ffffffffffffffffffffffffffffffffffffffff168373ffffffffffffffffffffffffffffffffffffffff1603610755576040517f08c379a000000000000000000000000000000000000000000000000000000000815260040161074c90613496565b60405180910390fd5b8073ffffffffffffffffffffffffffffffffffffffff1661077461168b565b73ffffffffffffffffffffffffffffffffffffffff1614806107a357506107a28161079d61168b565b61142a565b5b6107e2576040517f08c379a00000000000000000000000000000000000000000000000000000000081526004016107d990613528565b60405180910390fd5b6107ec8383611693565b505050565b6108026107fc61168b565b8261174c565b610841576040517f08c379a0000000000000000000000000000000000000000000000000000000008152600401610838906135ba565b60405180910390fd5b61084c83838361182a565b505050565b61086c8383836040518060200160405280600081525061100b565b505050565b6000806002600084815260200190815260200160002060009054906101000a900473ffffffffffffffffffffffffffffffffffffffff169050600073ffffffffffffffffffffffffffffffffffffffff168173ffffffffffffffffffffffffffffffffffffffff1603610919576040517f08c379a00000000000000000000000000000000000000000000000000000000081526004016109109061364c565b60405180910390fd5b80915050919050565b600a6020528060005260406000206000915054906101000a900473ffffffffffffffffffffffffffffffffffffffff1681565b60008073ffffffffffffffffffffffffffffffffffffffff168273ffffffffffffffffffffffffffffffffffffffff16036109c5576040517f08c379a00000000000000000000000000000000000000000000000000000000081526004016109bc906136de565b60405180910390fd5b600360008373ffffffffffffffffffffffffffffffffffffffff1673ffffffffffffffffffffffffffffffffffffffff168152602001908152602001600020549050919050565b610a1461168b565b73ffffffffffffffffffffffffffffffffffffffff16610a32610a94565b73ffffffffffffffffffffffffffffffffffffffff1614610a88576040517f08c379a0000000000000000000000000000000000000000000000000000000008152600401610a7f9061374a565b60405180910390fd5b610a926000611a90565b565b6000600660009054906101000a900473ffffffffffffffffffffffffffffffffffffffff16905090565b6060610ac861168b565b73ffffffffffffffffffffffffffffffffffffffff16610ae6610a94565b73ffffffffffffffffffffffffffffffffffffffff1614610b3c576040517f08c379a0000000000000000000000000000000000000000000000000000000008152600401610b339061374a565b60405180910390fd5b6008805480602002602001604051908101604052809291908181526020016000905b82821015610e08578382906000526020600020906005020160405180610260016040529081600082015481526020016001820160009054906101000a900460ff166003811115610bb157610bb0612d0c565b5b6003811115610bc357610bc2612d0c565b5b81526020016001820160019054906101000a900460ff166003811115610bec57610beb612d0c565b5b6003811115610bfe57610bfd612d0c565b5b81526020016001820160029054906101000a900460ff1660ff1660ff1681526020016001820160039054906101000a900460ff1660ff1660ff1681526020016001820160049054906101000a900460ff1660ff1660ff1681526020016001820160059054906101000a900460ff161515151581526020016001820160069054906101000a900463ffffffff1663ffffffff1663ffffffff16815260200160018201600a9054906101000a900463ffffffff1663ffffffff1663ffffffff16815260200160018201600e9054906101000a900463ffffffff1663ffffffff1663ffffffff1681526020016001820160129054906101000a900463ffffffff1663ffffffff1663ffffffff1681526020016001820160169054906101000a900463ffffffff1663ffffffff1663ffffffff16815260200160018201601a9054906101000a900463ffffffff1663ffffffff1663ffffffff1681526020016002820160009054906101000a900463ffffffff1663ffffffff1663ffffffff1681526020016002820160049054906101000a900463ffffffff1663ffffffff1663ffffffff1681526020016002820160089054906101000a900463ffffffff1663ffffffff1663ffffffff16815260200160028201600c9054906101000a900460ff161515151581526020016003820154815260200160048201548152505081526020019060010190610b5e565b50505050905090565b606060018054610e2090613361565b80601f0160208091040260200160405190810160405280929190818152602001828054610e4c90613361565b8015610e995780601f10610e6e57610100808354040283529160200191610e99565b820191906000526020600020905b815481529060010190602001808311610e7c57829003601f168201915b5050505050905090565b610eab61168b565b73ffffffffffffffffffffffffffffffffffffffff16610ec9610a94565b73ffffffffffffffffffffffffffffffffffffffff1614610f1f576040517f08c379a0000000000000000000000000000000000000000000000000000000008152600401610f169061374a565b60405180910390fd5b8160006003811115610f3457610f33612d0c565b5b816003811115610f4757610f46612d0c565b5b10158015610f795750806003811115610f6357610f62612d0c565b5b600380811115610f7657610f75612d0c565b5b10155b610f8257600080fd5b8160006003811115610f9757610f96612d0c565b5b816003811115610faa57610fa9612d0c565b5b10158015610fdc5750806003811115610fc657610fc5612d0c565b5b600380811115610fd957610fd8612d0c565b5b10155b610fe557600080fd5b610fef8484611b56565b50505050565b61100761100061168b565b83836122d7565b5050565b61101c61101661168b565b8361174c565b61105b576040517f08c379a0000000000000000000000000000000000000000000000000000000008152600401611052906135ba565b60405180910390fd5b61106784848484612443565b50505050565b6060600b60008373ffffffffffffffffffffffffffffffffffffffff1673ffffffffffffffffffffffffffffffffffffffff168152602001908152602001600020805480602002602001604051908101604052809291908181526020016000905b82821015611378578382906000526020600020906005020160405180610260016040529081600082015481526020016001820160009054906101000a900460ff16600381111561112157611120612d0c565b5b600381111561113357611132612d0c565b5b81526020016001820160019054906101000a900460ff16600381111561115c5761115b612d0c565b5b600381111561116e5761116d612d0c565b5b81526020016001820160029054906101000a900460ff1660ff1660ff1681526020016001820160039054906101000a900460ff1660ff1660ff1681526020016001820160049054906101000a900460ff1660ff1660ff1681526020016001820160059054906101000a900460ff161515151581526020016001820160069054906101000a900463ffffffff1663ffffffff1663ffffffff16815260200160018201600a9054906101000a900463ffffffff1663ffffffff1663ffffffff16815260200160018201600e9054906101000a900463ffffffff1663ffffffff1663ffffffff1681526020016001820160129054906101000a900463ffffffff1663ffffffff1663ffffffff1681526020016001820160169054906101000a900463ffffffff1663ffffffff1663ffffffff16815260200160018201601a9054906101000a900463ffffffff1663ffffffff1663ffffffff1681526020016002820160009054906101000a900463ffffffff1663ffffffff1663ffffffff1681526020016002820160049054906101000a900463ffffffff1663ffffffff1663ffffffff1681526020016002820160089054906101000a900463ffffffff1663ffffffff1663ffffffff16815260200160028201600c9054906101000a900460ff1615151515815260200160038201548152602001600482015481525050815260200190600101906110ce565b505050509050919050565b606061138e8261161f565b6113cd576040517f08c379a00000000000000000000000000000000000000000000000000000000081526004016113c4906137dc565b60405180910390fd5b60006113d761249f565b905060008151116113f75760405180602001604052806000815250611422565b80611401846124b6565b604051602001611412929190613838565b6040516020818303038152906040525b915050919050565b6000600560008473ffffffffffffffffffffffffffffffffffffffff1673ffffffffffffffffffffffffffffffffffffffff16815260200190815260200160002060008373ffffffffffffffffffffffffffffffffffffffff1673ffffffffffffffffffffffffffffffffffffffff16815260200190815260200160002060009054906101000a900460ff16905092915050565b6114c661168b565b73ffffffffffffffffffffffffffffffffffffffff166114e4610a94565b73ffffffffffffffffffffffffffffffffffffffff161461153a576040517f08c379a00000000000000000000000000000000000000000000000000000000081526004016115319061374a565b60405180910390fd5b600073ffffffffffffffffffffffffffffffffffffffff168173ffffffffffffffffffffffffffffffffffffffff16036115a9576040517f08c379a00000000000000000000000000000000000000000000000000000000081526004016115a0906138ce565b60405180910390fd5b6115b281611a90565b50565b60007f01ffc9a7000000000000000000000000000000000000000000000000000000007bffffffffffffffffffffffffffffffffffffffffffffffffffffffff1916827bffffffffffffffffffffffffffffffffffffffffffffffffffffffff1916149050919050565b60008073ffffffffffffffffffffffffffffffffffffffff166002600084815260200190815260200160002060009054906101000a900473ffffffffffffffffffffffffffffffffffffffff1673ffffffffffffffffffffffffffffffffffffffff1614159050919050565b600033905090565b816004600083815260200190815260200160002060006101000a81548173ffffffffffffffffffffffffffffffffffffffff021916908373ffffffffffffffffffffffffffffffffffffffff160217905550808273ffffffffffffffffffffffffffffffffffffffff1661170683610871565b73ffffffffffffffffffffffffffffffffffffffff167f8c5be1e5ebec7d5bd14f71427d1e84f3dd0314c0f7b2291e5b200ac8c7c3b92560405160405180910390a45050565b60006117578261161f565b611796576040517f08c379a000000000000000000000000000000000000000000000000000000000815260040161178d90613960565b60405180910390fd5b60006117a183610871565b90508073ffffffffffffffffffffffffffffffffffffffff168473ffffffffffffffffffffffffffffffffffffffff1614806117e357506117e2818561142a565b5b8061182157508373ffffffffffffffffffffffffffffffffffffffff1661180984610655565b73ffffffffffffffffffffffffffffffffffffffff16145b91505092915050565b8273ffffffffffffffffffffffffffffffffffffffff1661184a82610871565b73ffffffffffffffffffffffffffffffffffffffff16146118a0576040517f08c379a0000000000000000000000000000000000000000000000000000000008152600401611897906139f2565b60405180910390fd5b600073ffffffffffffffffffffffffffffffffffffffff168273ffffffffffffffffffffffffffffffffffffffff160361190f576040517f08c379a000000000000000000000000000000000000000000000000000000000815260040161190690613a84565b60405180910390fd5b61191a838383612616565b611925600082611693565b6001600360008573ffffffffffffffffffffffffffffffffffffffff1673ffffffffffffffffffffffffffffffffffffffff16815260200190815260200160002060008282546119759190613ad3565b925050819055506001600360008473ffffffffffffffffffffffffffffffffffffffff1673ffffffffffffffffffffffffffffffffffffffff16815260200190815260200160002060008282546119cc9190613b07565b92505081905550816002600083815260200190815260200160002060006101000a81548173ffffffffffffffffffffffffffffffffffffffff021916908373ffffffffffffffffffffffffffffffffffffffff160217905550808273ffffffffffffffffffffffffffffffffffffffff168473ffffffffffffffffffffffffffffffffffffffff167fddf252ad1be2c89b69c2b068fc378daa952ba7f163c4a11628f55a4df523b3ef60405160405180910390a4611a8b83838361261b565b505050565b6000600660009054906101000a900473ffffffffffffffffffffffffffffffffffffffff16905081600660006101000a81548173ffffffffffffffffffffffffffffffffffffffff021916908373ffffffffffffffffffffffffffffffffffffffff1602179055508173ffffffffffffffffffffffffffffffffffffffff168173ffffffffffffffffffffffffffffffffffffffff167f8be0079c531659141344cd1fd0a4f28419497f9722a3daafe3b4186f6b6457e060405160405180910390a35050565b6000611b626009612620565b90506000611b6f8361262e565b90506000611b7c8461262e565b90506000611b898561262e565b90506000611b968661262e565b90506000604051806102600160405280878152602001896003811115611bbf57611bbe612d0c565b5b8152602001886003811115611bd757611bd6612d0c565b5b8152602001600060ff168152602001606460ff168152602001600060ff1681526020016001151581526020018663ffffffff1681526020018563ffffffff1681526020018463ffffffff1681526020018363ffffffff1681526020018663ffffffff1681526020018563ffffffff1681526020018463ffffffff1681526020018363ffffffff168152602001600063ffffffff168152602001600015158152602001600081526020016000815250905060088190806001815401808255809150506001900390600052602060002090600502016000909190919091506000820151816000015560208201518160010160006101000a81548160ff02191690836003811115611ce857611ce7612d0c565b5b021790555060408201518160010160016101000a81548160ff02191690836003811115611d1857611d17612d0c565b5b021790555060608201518160010160026101000a81548160ff021916908360ff16021790555060808201518160010160036101000a81548160ff021916908360ff16021790555060a08201518160010160046101000a81548160ff021916908360ff16021790555060c08201518160010160056101000a81548160ff02191690831515021790555060e08201518160010160066101000a81548163ffffffff021916908363ffffffff16021790555061010082015181600101600a6101000a81548163ffffffff021916908363ffffffff16021790555061012082015181600101600e6101000a81548163ffffffff021916908363ffffffff1602179055506101408201518160010160126101000a81548163ffffffff021916908363ffffffff1602179055506101608201518160010160166101000a81548163ffffffff021916908363ffffffff16021790555061018082015181600101601a6101000a81548163ffffffff021916908363ffffffff1602179055506101a08201518160020160006101000a81548163ffffffff021916908363ffffffff1602179055506101c08201518160020160046101000a81548163ffffffff021916908363ffffffff1602179055506101e08201518160020160086101000a81548163ffffffff021916908363ffffffff16021790555061020082015181600201600c6101000a81548160ff021916908315150217905550610220820151816003015561024082015181600401555050600b60003373ffffffffffffffffffffffffffffffffffffffff1673ffffffffffffffffffffffffffffffffffffffff1681526020019081526020016000208190806001815401808255809150506001900390600052602060002090600502016000909190919091506000820151816000015560208201518160010160006101000a81548160ff02191690836003811115611fde57611fdd612d0c565b5b021790555060408201518160010160016101000a81548160ff0219169083600381111561200e5761200d612d0c565b5b021790555060608201518160010160026101000a81548160ff021916908360ff16021790555060808201518160010160036101000a81548160ff021916908360ff16021790555060a08201518160010160046101000a81548160ff021916908360ff16021790555060c08201518160010160056101000a81548160ff02191690831515021790555060e08201518160010160066101000a81548163ffffffff021916908363ffffffff16021790555061010082015181600101600a6101000a81548163ffffffff021916908363ffffffff16021790555061012082015181600101600e6101000a81548163ffffffff021916908363ffffffff1602179055506101408201518160010160126101000a81548163ffffffff021916908363ffffffff1602179055506101608201518160010160166101000a81548163ffffffff021916908363ffffffff16021790555061018082015181600101601a6101000a81548163ffffffff021916908363ffffffff1602179055506101a08201518160020160006101000a81548163ffffffff021916908363ffffffff1602179055506101c08201518160020160046101000a81548163ffffffff021916908363ffffffff1602179055506101e08201518160020160086101000a81548163ffffffff021916908363ffffffff16021790555061020082015181600201600c6101000a81548160ff02191690831515021790555061022082015181600301556102408201518160040155505033600a600088815260200190815260200160002060006101000a81548173ffffffffffffffffffffffffffffffffffffffff021916908373ffffffffffffffffffffffffffffffffffffffff1602179055507f6a8c59da79afe08e9e21105b96ace9e15b03412ae0b524de35e6aaf93985f3a48689896040516122bb93929190613b7b565b60405180910390a16122cd6009612734565b5050505050505050565b8173ffffffffffffffffffffffffffffffffffffffff168373ffffffffffffffffffffffffffffffffffffffff1603612345576040517f08c379a000000000000000000000000000000000000000000000000000000000815260040161233c90613bfe565b60405180910390fd5b80600560008573ffffffffffffffffffffffffffffffffffffffff1673ffffffffffffffffffffffffffffffffffffffff16815260200190815260200160002060008473ffffffffffffffffffffffffffffffffffffffff1673ffffffffffffffffffffffffffffffffffffffff16815260200190815260200160002060006101000a81548160ff0219169083151502179055508173ffffffffffffffffffffffffffffffffffffffff168373ffffffffffffffffffffffffffffffffffffffff167f17307eab39ab6107e8899845ad3d59bd9653f200f220920489ca2b5937696c31836040516124369190612a26565b60405180910390a3505050565b61244e84848461182a565b61245a8484848461274a565b612499576040517f08c379a000000000000000000000000000000000000000000000000000000000815260040161249090613c90565b60405180910390fd5b50505050565b606060405180602001604052806000815250905090565b6060600082036124fd576040518060400160405280600181526020017f30000000000000000000000000000000000000000000000000000000000000008152509050612611565b600082905060005b6000821461252f57808061251890613cb0565b915050600a826125289190613d27565b9150612505565b60008167ffffffffffffffff81111561254b5761254a613144565b5b6040519080825280601f01601f19166020018201604052801561257d5781602001600182028036833780820191505090505b5090505b6000851461260a576001826125969190613ad3565b9150600a856125a59190613d58565b60306125b19190613b07565b60f81b8183815181106125c7576125c6613d89565b5b60200101907effffffffffffffffffffffffffffffffffffffffffffffffffffffffffffff1916908160001a905350600a856126039190613d27565b9450612581565b8093505050505b919050565b505050565b505050565b600081600001549050919050565b600080600381111561264357612642612d0c565b5b82600381111561265657612655612d0c565b5b0361266e57612667600a60016128d1565b905061272f565b6001600381111561268257612681612d0c565b5b82600381111561269557612694612d0c565b5b036126ad576126a6601260086128d1565b905061272f565b600260038111156126c1576126c0612d0c565b5b8260038111156126d4576126d3612d0c565b5b036126ec576126e56023600f6128d1565b905061272f565b6003808111156126ff576126fe612d0c565b5b82600381111561271257612711612d0c565b5b0361272a57612723603f601c6128d1565b905061272f565b600090505b919050565b6001816000016000828254019250508190555050565b600061276b8473ffffffffffffffffffffffffffffffffffffffff1661294f565b156128c4578373ffffffffffffffffffffffffffffffffffffffff1663150b7a0261279461168b565b8786866040518563ffffffff1660e01b81526004016127b69493929190613e0d565b6020604051808303816000875af19250505080156127f257506040513d601f19601f820116820180604052508101906127ef9190613e6e565b60015b612874573d8060008114612822576040519150601f19603f3d011682016040523d82523d6000602084013e612827565b606091505b50600081510361286c576040517f08c379a000000000000000000000000000000000000000000000000000000000815260040161286390613c90565b60405180910390fd5b805181602001fd5b63150b7a0260e01b7bffffffffffffffffffffffffffffffffffffffffffffffffffffffff1916817bffffffffffffffffffffffffffffffffffffffffffffffffffffffff1916149150506128c9565b600190505b949350505050565b60008042336007546040516020016128eb93929190613f04565b6040516020818303038152906040528051906020012060001c90506007600081548092919061291990613cb0565b91905055508260ff16838561292e9190613f41565b60ff168261293c9190613d58565b6129469190613b07565b91505092915050565b6000808273ffffffffffffffffffffffffffffffffffffffff163b119050919050565b6000604051905090565b600080fd5b600080fd5b60007fffffffff0000000000000000000000000000000000000000000000000000000082169050919050565b6129bb81612986565b81146129c657600080fd5b50565b6000813590506129d8816129b2565b92915050565b6000602082840312156129f4576129f361297c565b5b6000612a02848285016129c9565b91505092915050565b60008115159050919050565b612a2081612a0b565b82525050565b6000602082019050612a3b6000830184612a17565b92915050565b600081519050919050565b600082825260208201905092915050565b60005b83811015612a7b578082015181840152602081019050612a60565b83811115612a8a576000848401525b50505050565b6000601f19601f8301169050919050565b6000612aac82612a41565b612ab68185612a4c565b9350612ac6818560208601612a5d565b612acf81612a90565b840191505092915050565b60006020820190508181036000830152612af48184612aa1565b905092915050565b6000819050919050565b612b0f81612afc565b8114612b1a57600080fd5b50565b600081359050612b2c81612b06565b92915050565b600060208284031215612b4857612b4761297c565b5b6000612b5684828501612b1d565b91505092915050565b600073ffffffffffffffffffffffffffffffffffffffff82169050919050565b6000612b8a82612b5f565b9050919050565b612b9a81612b7f565b82525050565b6000602082019050612bb56000830184612b91565b92915050565b612bc481612b7f565b8114612bcf57600080fd5b50565b600081359050612be181612bbb565b92915050565b60008060408385031215612bfe57612bfd61297c565b5b6000612c0c85828601612bd2565b9250506020612c1d85828601612b1d565b9150509250929050565b600080600060608486031215612c4057612c3f61297c565b5b6000612c4e86828701612bd2565b9350506020612c5f86828701612bd2565b9250506040612c7086828701612b1d565b9150509250925092565b600060208284031215612c9057612c8f61297c565b5b6000612c9e84828501612bd2565b91505092915050565b612cb081612afc565b82525050565b6000602082019050612ccb6000830184612ca7565b92915050565b600081519050919050565b600082825260208201905092915050565b6000819050602082019050919050565b612d0681612afc565b82525050565b7f4e487b7100000000000000000000000000000000000000000000000000000000600052602160045260246000fd5b60048110612d4c57612d4b612d0c565b5b50565b6000819050612d5d82612d3b565b919050565b6000612d6d82612d4f565b9050919050565b612d7d81612d62565b82525050565b60048110612d9457612d93612d0c565b5b50565b6000819050612da582612d83565b919050565b6000612db582612d97565b9050919050565b612dc581612daa565b82525050565b600060ff82169050919050565b612de181612dcb565b82525050565b612df081612a0b565b82525050565b600063ffffffff82169050919050565b612e0f81612df6565b82525050565b61026082016000820151612e2c6000850182612cfd565b506020820151612e3f6020850182612d74565b506040820151612e526040850182612dbc565b506060820151612e656060850182612dd8565b506080820151612e786080850182612dd8565b5060a0820151612e8b60a0850182612dd8565b5060c0820151612e9e60c0850182612de7565b5060e0820151612eb160e0850182612e06565b50610100820151612ec6610100850182612e06565b50610120820151612edb610120850182612e06565b50610140820151612ef0610140850182612e06565b50610160820151612f05610160850182612e06565b50610180820151612f1a610180850182612e06565b506101a0820151612f2f6101a0850182612e06565b506101c0820151612f446101c0850182612e06565b506101e0820151612f596101e0850182612e06565b50610200820151612f6e610200850182612de7565b50610220820151612f83610220850182612cfd565b50610240820151612f98610240850182612cfd565b50505050565b6000612faa8383612e15565b6102608301905092915050565b6000602082019050919050565b6000612fcf82612cd1565b612fd98185612cdc565b9350612fe483612ced565b8060005b83811015613015578151612ffc8882612f9e565b975061300783612fb7565b925050600181019050612fe8565b5085935050505092915050565b6000602082019050818103600083015261303c8184612fc4565b905092915050565b6004811061305157600080fd5b50565b60008135905061306381613044565b92915050565b6004811061307657600080fd5b50565b60008135905061308881613069565b92915050565b600080604083850312156130a5576130a461297c565b5b60006130b385828601613054565b92505060206130c485828601613079565b9150509250929050565b6130d781612a0b565b81146130e257600080fd5b50565b6000813590506130f4816130ce565b92915050565b600080604083850312156131115761311061297c565b5b600061311f85828601612bd2565b9250506020613130858286016130e5565b9150509250929050565b600080fd5b600080fd5b7f4e487b7100000000000000000000000000000000000000000000000000000000600052604160045260246000fd5b61317c82612a90565b810181811067ffffffffffffffff8211171561319b5761319a613144565b5b80604052505050565b60006131ae612972565b90506131ba8282613173565b919050565b600067ffffffffffffffff8211156131da576131d9613144565b5b6131e382612a90565b9050602081019050919050565b82818337600083830152505050565b600061321261320d846131bf565b6131a4565b90508281526020810184848401111561322e5761322d61313f565b5b6132398482856131f0565b509392505050565b600082601f8301126132565761325561313a565b5b81356132668482602086016131ff565b91505092915050565b600080600080608085870312156132895761328861297c565b5b600061329787828801612bd2565b94505060206132a887828801612bd2565b93505060406132b987828801612b1d565b925050606085013567ffffffffffffffff8111156132da576132d9612981565b5b6132e687828801613241565b91505092959194509250565b600080604083850312156133095761330861297c565b5b600061331785828601612bd2565b925050602061332885828601612bd2565b9150509250929050565b7f4e487b7100000000000000000000000000000000000000000000000000000000600052602260045260246000fd5b6000600282049050600182168061337957607f821691505b60208210810361338c5761338b613332565b5b50919050565b7f4552433732313a20617070726f76656420717565727920666f72206e6f6e657860008201527f697374656e7420746f6b656e0000000000000000000000000000000000000000602082015250565b60006133ee602c83612a4c565b91506133f982613392565b604082019050919050565b6000602082019050818103600083015261341d816133e1565b9050919050565b7f4552433732313a20617070726f76616c20746f2063757272656e74206f776e6560008201527f7200000000000000000000000000000000000000000000000000000000000000602082015250565b6000613480602183612a4c565b915061348b82613424565b604082019050919050565b600060208201905081810360008301526134af81613473565b9050919050565b7f4552433732313a20617070726f76652063616c6c6572206973206e6f74206f7760008201527f6e6572206e6f7220617070726f76656420666f7220616c6c0000000000000000602082015250565b6000613512603883612a4c565b915061351d826134b6565b604082019050919050565b6000602082019050818103600083015261354181613505565b9050919050565b7f4552433732313a207472616e736665722063616c6c6572206973206e6f74206f60008201527f776e6572206e6f7220617070726f766564000000000000000000000000000000602082015250565b60006135a4603183612a4c565b91506135af82613548565b604082019050919050565b600060208201905081810360008301526135d381613597565b9050919050565b7f4552433732313a206f776e657220717565727920666f72206e6f6e657869737460008201527f656e7420746f6b656e0000000000000000000000000000000000000000000000602082015250565b6000613636602983612a4c565b9150613641826135da565b604082019050919050565b6000602082019050818103600083015261366581613629565b9050919050565b7f4552433732313a2062616c616e636520717565727920666f7220746865207a6560008201527f726f206164647265737300000000000000000000000000000000000000000000602082015250565b60006136c8602a83612a4c565b91506136d38261366c565b604082019050919050565b600060208201905081810360008301526136f7816136bb565b9050919050565b7f4f776e61626c653a2063616c6c6572206973206e6f7420746865206f776e6572600082015250565b6000613734602083612a4c565b915061373f826136fe565b602082019050919050565b6000602082019050818103600083015261376381613727565b9050919050565b7f4552433732314d657461646174613a2055524920717565727920666f72206e6f60008201527f6e6578697374656e7420746f6b656e0000000000000000000000000000000000602082015250565b60006137c6602f83612a4c565b91506137d18261376a565b604082019050919050565b600060208201905081810360008301526137f5816137b9565b9050919050565b600081905092915050565b600061381282612a41565b61381c81856137fc565b935061382c818560208601612a5d565b80840191505092915050565b60006138448285613807565b91506138508284613807565b91508190509392505050565b7f4f776e61626c653a206e6577206f776e657220697320746865207a65726f206160008201527f6464726573730000000000000000000000000000000000000000000000000000602082015250565b60006138b8602683612a4c565b91506138c38261385c565b604082019050919050565b600060208201905081810360008301526138e7816138ab565b9050919050565b7f4552433732313a206f70657261746f7220717565727920666f72206e6f6e657860008201527f697374656e7420746f6b656e0000000000000000000000000000000000000000602082015250565b600061394a602c83612a4c565b9150613955826138ee565b604082019050919050565b600060208201905081810360008301526139798161393d565b9050919050565b7f4552433732313a207472616e736665722066726f6d20696e636f72726563742060008201527f6f776e6572000000000000000000000000000000000000000000000000000000602082015250565b60006139dc602583612a4c565b91506139e782613980565b604082019050919050565b60006020820190508181036000830152613a0b816139cf565b9050919050565b7f4552433732313a207472616e7366657220746f20746865207a65726f2061646460008201527f7265737300000000000000000000000000000000000000000000000000000000602082015250565b6000613a6e602483612a4c565b9150613a7982613a12565b604082019050919050565b60006020820190508181036000830152613a9d81613a61565b9050919050565b7f4e487b7100000000000000000000000000000000000000000000000000000000600052601160045260246000fd5b6000613ade82612afc565b9150613ae983612afc565b925082821015613afc57613afb613aa4565b5b828203905092915050565b6000613b1282612afc565b9150613b1d83612afc565b9250827fffffffffffffffffffffffffffffffffffffffffffffffffffffffffffffffff03821115613b5257613b51613aa4565b5b828201905092915050565b613b6681612d62565b82525050565b613b7581612daa565b82525050565b6000606082019050613b906000830186612ca7565b613b9d6020830185613b5d565b613baa6040830184613b6c565b949350505050565b7f4552433732313a20617070726f766520746f2063616c6c657200000000000000600082015250565b6000613be8601983612a4c565b9150613bf382613bb2565b602082019050919050565b60006020820190508181036000830152613c1781613bdb565b9050919050565b7f4552433732313a207472616e7366657220746f206e6f6e20455243373231526560008201527f63656976657220696d706c656d656e7465720000000000000000000000000000602082015250565b6000613c7a603283612a4c565b9150613c8582613c1e565b604082019050919050565b60006020820190508181036000830152613ca981613c6d565b9050919050565b6000613cbb82612afc565b91507fffffffffffffffffffffffffffffffffffffffffffffffffffffffffffffffff8203613ced57613cec613aa4565b5b600182019050919050565b7f4e487b7100000000000000000000000000000000000000000000000000000000600052601260045260246000fd5b6000613d3282612afc565b9150613d3d83612afc565b925082613d4d57613d4c613cf8565b5b828204905092915050565b6000613d6382612afc565b9150613d6e83612afc565b925082613d7e57613d7d613cf8565b5b828206905092915050565b7f4e487b7100000000000000000000000000000000000000000000000000000000600052603260045260246000fd5b600081519050919050565b600082825260208201905092915050565b6000613ddf82613db8565b613de98185613dc3565b9350613df9818560208601612a5d565b613e0281612a90565b840191505092915050565b6000608082019050613e226000830187612b91565b613e2f6020830186612b91565b613e3c6040830185612ca7565b8181036060830152613e4e8184613dd4565b905095945050505050565b600081519050613e68816129b2565b92915050565b600060208284031215613e8457613e8361297c565b5b6000613e9284828501613e59565b91505092915050565b6000819050919050565b613eb6613eb182612afc565b613e9b565b82525050565b60008160601b9050919050565b6000613ed482613ebc565b9050919050565b6000613ee682613ec9565b9050919050565b613efe613ef982612b7f565b613edb565b82525050565b6000613f108286613ea5565b602082019150613f208285613eed565b601482019150613f308284613ea5565b602082019150819050949350505050565b6000613f4c82612dcb565b9150613f5783612dcb565b925082821015613f6a57613f69613aa4565b5b82820390509291505056fea264697066735822122079c9d0d67116d63da2e5ccdb9c9be5b00e73efe9e4bd95063128f0f26eb308bc64736f6c634300080e0033",
  "immutableReferences": {},
  "source": "// SPDX-License-Identifier: UNLICENSED\npragma solidity ^0.8.14;\n\nimport \"@openzeppelin/contracts/token/ERC721/ERC721.sol\";\nimport \"@openzeppelin/contracts/access/Ownable.sol\";\nimport \"@openzeppelin/contracts/utils/Counters.sol\";\nimport { ISneakerData } from \"./interface/ISneakerData.sol\";\nimport { GenerateRandom } from \"./utility/GenerateRandom.sol\";\nimport { Validator } from \"./utility/Validator.sol\";\n\ncontract SneakerFactory is\n  ERC721(\"Stepn dummu sneaker\", \"SDS\"),\n  Ownable,\n  GenerateRandom,\n  Validator\n{\n  using Counters for Counters.Counter;\n\n  // @dev \n  ISneakerData.Sneaker[] private _sneakers;\n  Counters.Counter private _tokenIds;\n  mapping (uint256 => address) public sneakerToOwner;\n  mapping (address => ISneakerData.Sneaker[]) private _ownerToSneakers;\n\n  // @dev Event\n  event NewSneaker(uint256 tokenId, ISneakerData.ShoeType shoeType, ISneakerData.Rarity rarity);\n\n  function _createSneaker(ISneakerData.ShoeType _shoeType, ISneakerData.Rarity _rarity) private {\n\n    uint256 newTokenId = _tokenIds.current(); // Unique Token ID\n    uint32 efficiency = _generateStatusBasedOnRarity(_rarity);\n    uint32 luck = _generateStatusBasedOnRarity(_rarity);\n    uint32 comfort = _generateStatusBasedOnRarity(_rarity);\n    uint32 resiliense = _generateStatusBasedOnRarity(_rarity);\n\n    // @dev Original new sneaker instance\n    ISneakerData.Sneaker memory _newSneaker = ISneakerData.Sneaker(newTokenId, _shoeType, _rarity, 0, 100, 0, true, efficiency, luck, comfort, resiliense, efficiency, luck, comfort, resiliense, 0, false, 0, 0);\n\n    _sneakers.push(_newSneaker);\n    _ownerToSneakers[msg.sender].push(_newSneaker);\n    sneakerToOwner[newTokenId] = msg.sender;\n    emit NewSneaker(newTokenId, _shoeType, _rarity);\n    _tokenIds.increment();\n  }\n\n  function _generateStatusBasedOnRarity(ISneakerData.Rarity _rarity) private returns (uint32) {\n    if (_rarity == ISneakerData.Rarity.COMMON) {\n      return GenerateRandom._generateRandomNumber(10, 1);\n    } else if (_rarity == ISneakerData.Rarity.UNCOMMON) {\n      return _generateRandomNumber(18, 8);\n    } else if (_rarity == ISneakerData.Rarity.RARE) {\n      return _generateRandomNumber(35, 15);\n    } else if (_rarity == ISneakerData.Rarity.EPIC) {\n      return _generateRandomNumber(63, 28);\n    }\n    return uint32(0);\n  }\n\n  function createSneaker(ISneakerData.ShoeType _shoeType, ISneakerData.Rarity _rarity)\n    public\n    payable\n    onlyOwner\n    validateShoeType(_shoeType)\n    validateRarity(_rarity)\n  {\n    _createSneaker( _shoeType, _rarity);\n  }\n\n  function getSneakers() public view onlyOwner returns (ISneakerData.Sneaker[] memory) {\n    return _sneakers;\n  }\n\n  function getOwnerToSneakers(address _owner) public view returns (ISneakerData.Sneaker[] memory) {\n    return _ownerToSneakers[_owner];\n  }\n}",
  "sourcePath": "/Users/takaishouhei/Desktop/stepn_dummy_contract/contracts/SneakerFactory.sol",
  "compiler": {
    "name": "solc",
    "version": "0.8.14+commit.80d49f37.Emscripten.clang"
  },
  "schemaVersion": "3.4.7",
  "updatedAt": "2022-06-14T15:00:15.898Z",
  "networkType": "ethereum",
  "devdoc": {
    "kind": "dev",
    "methods": {
      "approve(address,uint256)": {
        "details": "See {IERC721-approve}."
      },
      "balanceOf(address)": {
        "details": "See {IERC721-balanceOf}."
      },
      "getApproved(uint256)": {
        "details": "See {IERC721-getApproved}."
      },
      "isApprovedForAll(address,address)": {
        "details": "See {IERC721-isApprovedForAll}."
      },
      "name()": {
        "details": "See {IERC721Metadata-name}."
      },
      "owner()": {
        "details": "Returns the address of the current owner."
      },
      "ownerOf(uint256)": {
        "details": "See {IERC721-ownerOf}."
      },
      "renounceOwnership()": {
        "details": "Leaves the contract without owner. It will not be possible to call `onlyOwner` functions anymore. Can only be called by the current owner. NOTE: Renouncing ownership will leave the contract without an owner, thereby removing any functionality that is only available to the owner."
      },
      "safeTransferFrom(address,address,uint256)": {
        "details": "See {IERC721-safeTransferFrom}."
      },
      "safeTransferFrom(address,address,uint256,bytes)": {
        "details": "See {IERC721-safeTransferFrom}."
      },
      "setApprovalForAll(address,bool)": {
        "details": "See {IERC721-setApprovalForAll}."
      },
      "supportsInterface(bytes4)": {
        "details": "See {IERC165-supportsInterface}."
      },
      "symbol()": {
        "details": "See {IERC721Metadata-symbol}."
      },
      "tokenURI(uint256)": {
        "details": "See {IERC721Metadata-tokenURI}."
      },
      "transferFrom(address,address,uint256)": {
        "details": "See {IERC721-transferFrom}."
      },
      "transferOwnership(address)": {
        "details": "Transfers ownership of the contract to a new account (`newOwner`). Can only be called by the current owner."
      }
    },
    "version": 1
  },
  "userdoc": {
    "kind": "user",
    "methods": {},
    "version": 1
  }
}