{
  "contractName": "SneakerFactory",
  "abi": [
    {
      "anonymous": false,
      "inputs": [
        {
          "indexed": false,
          "internalType": "uint256",
          "name": "id",
          "type": "uint256"
        },
        {
          "indexed": false,
          "internalType": "uint8",
          "name": "shoe_type",
          "type": "uint8"
        }
      ],
      "name": "NewSneaker",
      "type": "event"
    },
    {
      "anonymous": false,
      "inputs": [
        {
          "indexed": true,
          "internalType": "address",
          "name": "previousOwner",
          "type": "address"
        },
        {
          "indexed": true,
          "internalType": "address",
          "name": "newOwner",
          "type": "address"
        }
      ],
      "name": "OwnershipTransferred",
      "type": "event"
    },
    {
      "inputs": [],
      "name": "owner",
      "outputs": [
        {
          "internalType": "address",
          "name": "",
          "type": "address"
        }
      ],
      "stateMutability": "view",
      "type": "function",
      "constant": true
    },
    {
      "inputs": [],
      "name": "renounceOwnership",
      "outputs": [],
      "stateMutability": "nonpayable",
      "type": "function"
    },
    {
      "inputs": [
        {
          "internalType": "uint256",
          "name": "",
          "type": "uint256"
        }
      ],
      "name": "sneakerToOwner",
      "outputs": [
        {
          "internalType": "address",
          "name": "",
          "type": "address"
        }
      ],
      "stateMutability": "view",
      "type": "function",
      "constant": true
    },
    {
      "inputs": [
        {
          "internalType": "uint256",
          "name": "",
          "type": "uint256"
        }
      ],
      "name": "sneakers",
      "outputs": [
        {
          "internalType": "uint256",
          "name": "id",
          "type": "uint256"
        },
        {
          "internalType": "uint8",
          "name": "shoe_type",
          "type": "uint8"
        }
      ],
      "stateMutability": "view",
      "type": "function",
      "constant": true
    },
    {
      "inputs": [
        {
          "internalType": "address",
          "name": "newOwner",
          "type": "address"
        }
      ],
      "name": "transferOwnership",
      "outputs": [],
      "stateMutability": "nonpayable",
      "type": "function"
    },
    {
      "inputs": [
        {
          "internalType": "string",
          "name": "_shoe_name",
          "type": "string"
        },
        {
          "internalType": "uint8",
          "name": "_shoe_type",
          "type": "uint8"
        }
      ],
      "name": "createSneaker",
      "outputs": [],
      "stateMutability": "payable",
      "type": "function",
      "payable": true
    }
  ],
  "bytecode": "0x608060405234801561001057600080fd5b5061002d61002261003260201b60201c565b61003a60201b60201c565b6100fe565b600033905090565b60008060009054906101000a900473ffffffffffffffffffffffffffffffffffffffff169050816000806101000a81548173ffffffffffffffffffffffffffffffffffffffff021916908373ffffffffffffffffffffffffffffffffffffffff1602179055508173ffffffffffffffffffffffffffffffffffffffff168173ffffffffffffffffffffffffffffffffffffffff167f8be0079c531659141344cd1fd0a4f28419497f9722a3daafe3b4186f6b6457e060405160405180910390a35050565b610bd48061010d6000396000f3fe6080604052600436106100555760003560e01c80636ad354821461005a578063715018a6146100975780638629686e146100ae5780638da5cb5b146100ca578063bd2e065c146100f5578063f2fde38b14610133575b600080fd5b34801561006657600080fd5b50610081600480360381019061007c9190610692565b61015c565b60405161008e9190610700565b60405180910390f35b3480156100a357600080fd5b506100ac61018f565b005b6100c860048036038101906100c3919061089a565b610217565b005b3480156100d657600080fd5b506100df6102af565b6040516100ec9190610700565b60405180910390f35b34801561010157600080fd5b5061011c60048036038101906101179190610692565b6102d8565b60405161012a929190610914565b60405180910390f35b34801561013f57600080fd5b5061015a60048036038101906101559190610969565b610319565b005b60026020528060005260406000206000915054906101000a900473ffffffffffffffffffffffffffffffffffffffff1681565b610197610410565b73ffffffffffffffffffffffffffffffffffffffff166101b56102af565b73ffffffffffffffffffffffffffffffffffffffff161461020b576040517f08c379a0000000000000000000000000000000000000000000000000000000008152600401610202906109f3565b60405180910390fd5b6102156000610418565b565b61021f610410565b73ffffffffffffffffffffffffffffffffffffffff1661023d6102af565b73ffffffffffffffffffffffffffffffffffffffff1614610293576040517f08c379a000000000000000000000000000000000000000000000000000000000815260040161028a906109f3565b60405180910390fd5b600061029e836104dc565b90506102aa8183610526565b505050565b60008060009054906101000a900473ffffffffffffffffffffffffffffffffffffffff16905090565b600181815481106102e857600080fd5b90600052602060002090600202016000915090508060000154908060010160009054906101000a900460ff16905082565b610321610410565b73ffffffffffffffffffffffffffffffffffffffff1661033f6102af565b73ffffffffffffffffffffffffffffffffffffffff1614610395576040517f08c379a000000000000000000000000000000000000000000000000000000000815260040161038c906109f3565b60405180910390fd5b600073ffffffffffffffffffffffffffffffffffffffff168173ffffffffffffffffffffffffffffffffffffffff1603610404576040517f08c379a00000000000000000000000000000000000000000000000000000000081526004016103fb90610a85565b60405180910390fd5b61040d81610418565b50565b600033905090565b60008060009054906101000a900473ffffffffffffffffffffffffffffffffffffffff169050816000806101000a81548173ffffffffffffffffffffffffffffffffffffffff021916908373ffffffffffffffffffffffffffffffffffffffff1602179055508173ffffffffffffffffffffffffffffffffffffffff168173ffffffffffffffffffffffffffffffffffffffff167f8be0079c531659141344cd1fd0a4f28419497f9722a3daafe3b4186f6b6457e060405160405180910390a35050565b600080826040516020016104f09190610b1c565b6040516020818303038152906040528051906020012060001c9050662386f26fc100008161051e9190610b6d565b915050919050565b8060018160ff161015801561053f575060048160ff1611155b61054857600080fd5b600160405180604001604052808581526020018460ff1681525090806001815401808255809150506001900390600052602060002090600202016000909190919091506000820151816000015560208201518160010160006101000a81548160ff021916908360ff1602179055505050336002600085815260200190815260200160002060006101000a81548173ffffffffffffffffffffffffffffffffffffffff021916908373ffffffffffffffffffffffffffffffffffffffff1602179055507f7b777e4d6cdcd2f9d983c595900957ad9d4a781e502e1a6f8a73c349dcd6a7e5838360405161063b929190610914565b60405180910390a1505050565b6000604051905090565b600080fd5b600080fd5b6000819050919050565b61066f8161065c565b811461067a57600080fd5b50565b60008135905061068c81610666565b92915050565b6000602082840312156106a8576106a7610652565b5b60006106b68482850161067d565b91505092915050565b600073ffffffffffffffffffffffffffffffffffffffff82169050919050565b60006106ea826106bf565b9050919050565b6106fa816106df565b82525050565b600060208201905061071560008301846106f1565b92915050565b600080fd5b600080fd5b6000601f19601f8301169050919050565b7f4e487b7100000000000000000000000000000000000000000000000000000000600052604160045260246000fd5b61076e82610725565b810181811067ffffffffffffffff8211171561078d5761078c610736565b5b80604052505050565b60006107a0610648565b90506107ac8282610765565b919050565b600067ffffffffffffffff8211156107cc576107cb610736565b5b6107d582610725565b9050602081019050919050565b82818337600083830152505050565b60006108046107ff846107b1565b610796565b9050828152602081018484840111156108205761081f610720565b5b61082b8482856107e2565b509392505050565b600082601f8301126108485761084761071b565b5b81356108588482602086016107f1565b91505092915050565b600060ff82169050919050565b61087781610861565b811461088257600080fd5b50565b6000813590506108948161086e565b92915050565b600080604083850312156108b1576108b0610652565b5b600083013567ffffffffffffffff8111156108cf576108ce610657565b5b6108db85828601610833565b92505060206108ec85828601610885565b9150509250929050565b6108ff8161065c565b82525050565b61090e81610861565b82525050565b600060408201905061092960008301856108f6565b6109366020830184610905565b9392505050565b610946816106df565b811461095157600080fd5b50565b6000813590506109638161093d565b92915050565b60006020828403121561097f5761097e610652565b5b600061098d84828501610954565b91505092915050565b600082825260208201905092915050565b7f4f776e61626c653a2063616c6c6572206973206e6f7420746865206f776e6572600082015250565b60006109dd602083610996565b91506109e8826109a7565b602082019050919050565b60006020820190508181036000830152610a0c816109d0565b9050919050565b7f4f776e61626c653a206e6577206f776e657220697320746865207a65726f206160008201527f6464726573730000000000000000000000000000000000000000000000000000602082015250565b6000610a6f602683610996565b9150610a7a82610a13565b604082019050919050565b60006020820190508181036000830152610a9e81610a62565b9050919050565b600081519050919050565b60005b83811015610ace578082015181840152602081019050610ab3565b83811115610add576000848401525b50505050565b6000610aee82610aa5565b610af88185610996565b9350610b08818560208601610ab0565b610b1181610725565b840191505092915050565b60006020820190508181036000830152610b368184610ae3565b905092915050565b7f4e487b7100000000000000000000000000000000000000000000000000000000600052601260045260246000fd5b6000610b788261065c565b9150610b838361065c565b925082610b9357610b92610b3e565b5b82820690509291505056fea26469706673582212206dda8caab1c924c05cc8814770bcd46a27ebfb12ab0afc015480ce476ad2ce2964736f6c634300080e0033",
  "immutableReferences": {},
  "source": "pragma solidity >=0.4.22 <0.9.0;\n\nimport \"@openzeppelin/contracts/access/Ownable.sol\";\n\ncontract SneakerFactory is Ownable {\n\n  event NewSneaker(uint id, uint8 shoe_type);\n\n  struct Sneaker {\n    uint id;\n    uint8 shoe_type; // 1: WALKER, 2: JOGGER, 3: RUNNER, 4: TRAINER\n  }\n\n  modifier checkShoeType(uint8 _shoe_type) {\n    require(_shoe_type >= 1 && _shoe_type <= 4);\n    _;\n  }\n\n  Sneaker[] public sneakers;\n\n  mapping (uint => address) public sneakerToOwner;\n\n  function _createSneaker(uint _id, uint8 _shoe_type) private checkShoeType(_shoe_type) {\n    sneakers.push(Sneaker(_id, _shoe_type));\n    sneakerToOwner[_id] = msg.sender;\n    emit NewSneaker(_id, _shoe_type);\n  }\n\n  function _generateSneakerId(string memory _str) private pure returns (uint) {\n    uint rand = uint(keccak256(abi.encode(_str)));\n    return rand % (10 ** 16);\n  }\n\n  function createSneaker(string memory _shoe_name, uint8 _shoe_type) public payable onlyOwner {\n    uint randName = _generateSneakerId(_shoe_name);\n    _createSneaker(randName, _shoe_type);\n  }\n}",
  "sourcePath": "/Users/takaishouhei/Desktop/stepn_dummy_contract/contracts/SneakerFactory.sol",
  "compiler": {
    "name": "solc",
    "version": "0.8.14+commit.80d49f37.Emscripten.clang"
  },
  "schemaVersion": "3.4.7",
  "updatedAt": "2022-06-11T07:22:45.430Z",
  "networkType": "ethereum",
  "devdoc": {
    "kind": "dev",
    "methods": {
      "owner()": {
        "details": "Returns the address of the current owner."
      },
      "renounceOwnership()": {
        "details": "Leaves the contract without owner. It will not be possible to call `onlyOwner` functions anymore. Can only be called by the current owner. NOTE: Renouncing ownership will leave the contract without an owner, thereby removing any functionality that is only available to the owner."
      },
      "transferOwnership(address)": {
        "details": "Transfers ownership of the contract to a new account (`newOwner`). Can only be called by the current owner."
      }
    },
    "version": 1
  },
  "userdoc": {
    "kind": "user",
    "methods": {},
    "version": 1
  }
}