{
  "contractName": "UserFactory",
  "abi": [
    {
      "anonymous": false,
      "inputs": [
        {
          "indexed": false,
          "internalType": "uint256",
          "name": "userId",
          "type": "uint256"
        }
      ],
      "name": "NewUser",
      "type": "event"
    },
    {
      "anonymous": false,
      "inputs": [
        {
          "indexed": true,
          "internalType": "address",
          "name": "previousOwner",
          "type": "address"
        },
        {
          "indexed": true,
          "internalType": "address",
          "name": "newOwner",
          "type": "address"
        }
      ],
      "name": "OwnershipTransferred",
      "type": "event"
    },
    {
      "inputs": [],
      "name": "owner",
      "outputs": [
        {
          "internalType": "address",
          "name": "",
          "type": "address"
        }
      ],
      "stateMutability": "view",
      "type": "function",
      "constant": true
    },
    {
      "inputs": [],
      "name": "renounceOwnership",
      "outputs": [],
      "stateMutability": "nonpayable",
      "type": "function"
    },
    {
      "inputs": [
        {
          "internalType": "address",
          "name": "newOwner",
          "type": "address"
        }
      ],
      "name": "transferOwnership",
      "outputs": [],
      "stateMutability": "nonpayable",
      "type": "function"
    },
    {
      "inputs": [
        {
          "internalType": "string",
          "name": "_name",
          "type": "string"
        },
        {
          "internalType": "bool",
          "name": "_isMale",
          "type": "bool"
        },
        {
          "internalType": "string",
          "name": "_email",
          "type": "string"
        },
        {
          "internalType": "string",
          "name": "_password",
          "type": "string"
        },
        {
          "internalType": "uint8",
          "name": "_avatorId",
          "type": "uint8"
        }
      ],
      "name": "createUser",
      "outputs": [],
      "stateMutability": "payable",
      "type": "function",
      "payable": true
    },
    {
      "inputs": [
        {
          "internalType": "uint256",
          "name": "_userId",
          "type": "uint256"
        }
      ],
      "name": "getUserMetadata",
      "outputs": [
        {
          "components": [
            {
              "internalType": "uint256",
              "name": "userId",
              "type": "uint256"
            },
            {
              "internalType": "string",
              "name": "name",
              "type": "string"
            },
            {
              "internalType": "bool",
              "name": "isMale",
              "type": "bool"
            },
            {
              "internalType": "string",
              "name": "email",
              "type": "string"
            },
            {
              "internalType": "string",
              "name": "password",
              "type": "string"
            },
            {
              "internalType": "uint8",
              "name": "avatorId",
              "type": "uint8"
            }
          ],
          "internalType": "struct IUserData.User",
          "name": "",
          "type": "tuple"
        }
      ],
      "stateMutability": "view",
      "type": "function",
      "constant": true
    }
  ],
  "bytecode": "0x608060405234801561001057600080fd5b5061002d61002261003260201b60201c565b61003a60201b60201c565b6100fe565b600033905090565b60008060009054906101000a900473ffffffffffffffffffffffffffffffffffffffff169050816000806101000a81548173ffffffffffffffffffffffffffffffffffffffff021916908373ffffffffffffffffffffffffffffffffffffffff1602179055508173ffffffffffffffffffffffffffffffffffffffff168173ffffffffffffffffffffffffffffffffffffffff167f8be0079c531659141344cd1fd0a4f28419497f9722a3daafe3b4186f6b6457e060405160405180910390a35050565b610ee48061010d6000396000f3fe60806040526004361061004a5760003560e01c8063715018a61461004f5780638da5cb5b14610066578063cb4e5d2d14610091578063cf86ea39146100ad578063f2fde38b146100ea575b600080fd5b34801561005b57600080fd5b50610064610113565b005b34801561007257600080fd5b5061007b61019b565b6040516100889190610836565b60405180910390f35b6100ab60048036038101906100a69190610a1c565b6101c4565b005b3480156100b957600080fd5b506100d460048036038101906100cf9190610b21565b61030b565b6040516100e19190610c9a565b60405180910390f35b3480156100f657600080fd5b50610111600480360381019061010c9190610ce8565b610530565b005b61011b610627565b73ffffffffffffffffffffffffffffffffffffffff1661013961019b565b73ffffffffffffffffffffffffffffffffffffffff161461018f576040517f08c379a000000000000000000000000000000000000000000000000000000000815260040161018690610d72565b60405180910390fd5b610199600061062f565b565b60008060009054906101000a900473ffffffffffffffffffffffffffffffffffffffff16905090565b60006101d060016106f3565b905060006040518060c0016040528083815260200188815260200187151581526020018681526020018581526020018460ff1681525090508060026000848152602001908152602001600020600082015181600001556020820151816001019080519060200190610242929190610717565b5060408201518160020160006101000a81548160ff021916908315150217905550606082015181600301908051906020019061027f929190610717565b50608082015181600401908051906020019061029c929190610717565b5060a08201518160050160006101000a81548160ff021916908360ff1602179055509050507f70b8515497d1bc3e1ae7202216a929ffa07f703541985ee77912b7d1390dfbdb826040516102f09190610da1565b60405180910390a16103026001610701565b50505050505050565b61031361079d565b600260008381526020019081526020016000206040518060c00160405290816000820154815260200160018201805461034b90610deb565b80601f016020809104026020016040519081016040528092919081815260200182805461037790610deb565b80156103c45780601f10610399576101008083540402835291602001916103c4565b820191906000526020600020905b8154815290600101906020018083116103a757829003601f168201915b505050505081526020016002820160009054906101000a900460ff161515151581526020016003820180546103f890610deb565b80601f016020809104026020016040519081016040528092919081815260200182805461042490610deb565b80156104715780601f1061044657610100808354040283529160200191610471565b820191906000526020600020905b81548152906001019060200180831161045457829003601f168201915b5050505050815260200160048201805461048a90610deb565b80601f01602080910402602001604051908101604052809291908181526020018280546104b690610deb565b80156105035780601f106104d857610100808354040283529160200191610503565b820191906000526020600020905b8154815290600101906020018083116104e657829003601f168201915b505050505081526020016005820160009054906101000a900460ff1660ff1660ff16815250509050919050565b610538610627565b73ffffffffffffffffffffffffffffffffffffffff1661055661019b565b73ffffffffffffffffffffffffffffffffffffffff16146105ac576040517f08c379a00000000000000000000000000000000000000000000000000000000081526004016105a390610d72565b60405180910390fd5b600073ffffffffffffffffffffffffffffffffffffffff168173ffffffffffffffffffffffffffffffffffffffff160361061b576040517f08c379a000000000000000000000000000000000000000000000000000000000815260040161061290610e8e565b60405180910390fd5b6106248161062f565b50565b600033905090565b60008060009054906101000a900473ffffffffffffffffffffffffffffffffffffffff169050816000806101000a81548173ffffffffffffffffffffffffffffffffffffffff021916908373ffffffffffffffffffffffffffffffffffffffff1602179055508173ffffffffffffffffffffffffffffffffffffffff168173ffffffffffffffffffffffffffffffffffffffff167f8be0079c531659141344cd1fd0a4f28419497f9722a3daafe3b4186f6b6457e060405160405180910390a35050565b600081600001549050919050565b6001816000016000828254019250508190555050565b82805461072390610deb565b90600052602060002090601f016020900481019282610745576000855561078c565b82601f1061075e57805160ff191683800117855561078c565b8280016001018555821561078c579182015b8281111561078b578251825591602001919060010190610770565b5b50905061079991906107d8565b5090565b6040518060c0016040528060008152602001606081526020016000151581526020016060815260200160608152602001600060ff1681525090565b5b808211156107f15760008160009055506001016107d9565b5090565b600073ffffffffffffffffffffffffffffffffffffffff82169050919050565b6000610820826107f5565b9050919050565b61083081610815565b82525050565b600060208201905061084b6000830184610827565b92915050565b6000604051905090565b600080fd5b600080fd5b600080fd5b600080fd5b6000601f19601f8301169050919050565b7f4e487b7100000000000000000000000000000000000000000000000000000000600052604160045260246000fd5b6108b88261086f565b810181811067ffffffffffffffff821117156108d7576108d6610880565b5b80604052505050565b60006108ea610851565b90506108f682826108af565b919050565b600067ffffffffffffffff82111561091657610915610880565b5b61091f8261086f565b9050602081019050919050565b82818337600083830152505050565b600061094e610949846108fb565b6108e0565b90508281526020810184848401111561096a5761096961086a565b5b61097584828561092c565b509392505050565b600082601f83011261099257610991610865565b5b81356109a284826020860161093b565b91505092915050565b60008115159050919050565b6109c0816109ab565b81146109cb57600080fd5b50565b6000813590506109dd816109b7565b92915050565b600060ff82169050919050565b6109f9816109e3565b8114610a0457600080fd5b50565b600081359050610a16816109f0565b92915050565b600080600080600060a08688031215610a3857610a3761085b565b5b600086013567ffffffffffffffff811115610a5657610a55610860565b5b610a628882890161097d565b9550506020610a73888289016109ce565b945050604086013567ffffffffffffffff811115610a9457610a93610860565b5b610aa08882890161097d565b935050606086013567ffffffffffffffff811115610ac157610ac0610860565b5b610acd8882890161097d565b9250506080610ade88828901610a07565b9150509295509295909350565b6000819050919050565b610afe81610aeb565b8114610b0957600080fd5b50565b600081359050610b1b81610af5565b92915050565b600060208284031215610b3757610b3661085b565b5b6000610b4584828501610b0c565b91505092915050565b610b5781610aeb565b82525050565b600081519050919050565b600082825260208201905092915050565b60005b83811015610b97578082015181840152602081019050610b7c565b83811115610ba6576000848401525b50505050565b6000610bb782610b5d565b610bc18185610b68565b9350610bd1818560208601610b79565b610bda8161086f565b840191505092915050565b610bee816109ab565b82525050565b610bfd816109e3565b82525050565b600060c083016000830151610c1b6000860182610b4e565b5060208301518482036020860152610c338282610bac565b9150506040830151610c486040860182610be5565b5060608301518482036060860152610c608282610bac565b91505060808301518482036080860152610c7a8282610bac565b91505060a0830151610c8f60a0860182610bf4565b508091505092915050565b60006020820190508181036000830152610cb48184610c03565b905092915050565b610cc581610815565b8114610cd057600080fd5b50565b600081359050610ce281610cbc565b92915050565b600060208284031215610cfe57610cfd61085b565b5b6000610d0c84828501610cd3565b91505092915050565b600082825260208201905092915050565b7f4f776e61626c653a2063616c6c6572206973206e6f7420746865206f776e6572600082015250565b6000610d5c602083610d15565b9150610d6782610d26565b602082019050919050565b60006020820190508181036000830152610d8b81610d4f565b9050919050565b610d9b81610aeb565b82525050565b6000602082019050610db66000830184610d92565b92915050565b7f4e487b7100000000000000000000000000000000000000000000000000000000600052602260045260246000fd5b60006002820490506001821680610e0357607f821691505b602082108103610e1657610e15610dbc565b5b50919050565b7f4f776e61626c653a206e6577206f776e657220697320746865207a65726f206160008201527f6464726573730000000000000000000000000000000000000000000000000000602082015250565b6000610e78602683610d15565b9150610e8382610e1c565b604082019050919050565b60006020820190508181036000830152610ea781610e6b565b905091905056fea2646970667358221220c9af5407212ffe2572476369d28234815e6c8c0e77076e59b77c26b91a8794f364736f6c634300080e0033",
  "immutableReferences": {},
  "source": "// SPDX-License-Identifier: UNLICENSED\npragma solidity ^0.8.14;\n\nimport \"@openzeppelin/contracts/access/Ownable.sol\";\nimport \"@openzeppelin/contracts/utils/Counters.sol\";\nimport { IUserData } from \"./interface/IUserData.sol\";\nimport { Validator } from \"./utility/Validator.sol\";\n\ncontract UserFactory is\n  Ownable,\n  Validator\n{\n  using Counters for Counters.Counter;\n\n  // @dev \n  Counters.Counter private _userIds;\n  mapping (uint256 => IUserData.User) private _userMetadata;\n\n  // @dev Event\n  event NewUser(uint256 userId);\n\n  function createUser(\n    string memory _name,\n    bool _isMale,\n    string memory _email,\n    string memory _password,\n    uint8 _avatorId\n  ) public payable {\n    uint256 newUserId = _userIds.current();\n    IUserData.User memory newUser = IUserData.User(newUserId, _name, _isMale, _email, _password, _avatorId);\n    _userMetadata[newUserId] = newUser;\n    emit NewUser(newUserId);\n    _userIds.increment();\n  }\n\n  function getUserMetadata(uint256 _userId) public view returns (IUserData.User memory) {\n    return _userMetadata[_userId];\n  }\n}",
  "sourcePath": "/Users/takaishouhei/Desktop/stepn_dummy_contract/contracts/UserFactory.sol",
  "compiler": {
    "name": "solc",
    "version": "0.8.14+commit.80d49f37.Emscripten.clang"
  },
  "schemaVersion": "3.4.7",
  "updatedAt": "2022-06-14T15:00:16.484Z",
  "networkType": "ethereum",
  "devdoc": {
    "kind": "dev",
    "methods": {
      "owner()": {
        "details": "Returns the address of the current owner."
      },
      "renounceOwnership()": {
        "details": "Leaves the contract without owner. It will not be possible to call `onlyOwner` functions anymore. Can only be called by the current owner. NOTE: Renouncing ownership will leave the contract without an owner, thereby removing any functionality that is only available to the owner."
      },
      "transferOwnership(address)": {
        "details": "Transfers ownership of the contract to a new account (`newOwner`). Can only be called by the current owner."
      }
    },
    "version": 1
  },
  "userdoc": {
    "kind": "user",
    "methods": {},
    "version": 1
  }
}